{
  "_format": "hh-sol-artifact-1",
  "contractName": "GameItem",
  "sourceName": "contracts/nftree.sol",
  "abi": [
    {
      "inputs": [],
      "stateMutability": "nonpayable",
      "type": "constructor"
    },
    {
      "anonymous": false,
      "inputs": [
        {
          "indexed": true,
          "internalType": "address",
          "name": "owner",
          "type": "address"
        },
        {
          "indexed": true,
          "internalType": "address",
          "name": "approved",
          "type": "address"
        },
        {
          "indexed": true,
          "internalType": "uint256",
          "name": "tokenId",
          "type": "uint256"
        }
      ],
      "name": "Approval",
      "type": "event"
    },
    {
      "anonymous": false,
      "inputs": [
        {
          "indexed": true,
          "internalType": "address",
          "name": "owner",
          "type": "address"
        },
        {
          "indexed": true,
          "internalType": "address",
          "name": "operator",
          "type": "address"
        },
        {
          "indexed": false,
          "internalType": "bool",
          "name": "approved",
          "type": "bool"
        }
      ],
      "name": "ApprovalForAll",
      "type": "event"
    },
    {
      "anonymous": false,
      "inputs": [
        {
          "indexed": true,
          "internalType": "address",
          "name": "from",
          "type": "address"
        },
        {
          "indexed": true,
          "internalType": "address",
          "name": "to",
          "type": "address"
        },
        {
          "indexed": true,
          "internalType": "uint256",
          "name": "tokenId",
          "type": "uint256"
        }
      ],
      "name": "Transfer",
      "type": "event"
    },
    {
      "inputs": [
        {
          "internalType": "address",
          "name": "to",
          "type": "address"
        },
        {
          "internalType": "uint256",
          "name": "tokenId",
          "type": "uint256"
        }
      ],
      "name": "approve",
      "outputs": [],
      "stateMutability": "nonpayable",
      "type": "function"
    },
    {
      "inputs": [
        {
          "internalType": "address",
          "name": "owner",
          "type": "address"
        }
      ],
      "name": "balanceOf",
      "outputs": [
        {
          "internalType": "uint256",
          "name": "",
          "type": "uint256"
        }
      ],
      "stateMutability": "view",
      "type": "function"
    },
    {
      "inputs": [
        {
          "internalType": "address",
          "name": "player",
          "type": "address"
        },
        {
          "internalType": "string",
          "name": "mytokenURI",
          "type": "string"
        }
      ],
      "name": "create",
      "outputs": [
        {
          "internalType": "uint256",
          "name": "",
          "type": "uint256"
        }
      ],
      "stateMutability": "nonpayable",
      "type": "function"
    },
    {
      "inputs": [
        {
          "internalType": "uint256",
          "name": "tokenId",
          "type": "uint256"
        }
      ],
      "name": "getApproved",
      "outputs": [
        {
          "internalType": "address",
          "name": "",
          "type": "address"
        }
      ],
      "stateMutability": "view",
      "type": "function"
    },
    {
      "inputs": [
        {
          "internalType": "address",
          "name": "owner",
          "type": "address"
        },
        {
          "internalType": "address",
          "name": "operator",
          "type": "address"
        }
      ],
      "name": "isApprovedForAll",
      "outputs": [
        {
          "internalType": "bool",
          "name": "",
          "type": "bool"
        }
      ],
      "stateMutability": "view",
      "type": "function"
    },
    {
      "inputs": [],
      "name": "name",
      "outputs": [
        {
          "internalType": "string",
          "name": "",
          "type": "string"
        }
      ],
      "stateMutability": "view",
      "type": "function"
    },
    {
      "inputs": [
        {
          "internalType": "uint256",
          "name": "tokenId",
          "type": "uint256"
        }
      ],
      "name": "ownerOf",
      "outputs": [
        {
          "internalType": "address",
          "name": "",
          "type": "address"
        }
      ],
      "stateMutability": "view",
      "type": "function"
    },
    {
      "inputs": [
        {
          "internalType": "address",
          "name": "from",
          "type": "address"
        },
        {
          "internalType": "address",
          "name": "to",
          "type": "address"
        },
        {
          "internalType": "uint256",
          "name": "tokenId",
          "type": "uint256"
        }
      ],
      "name": "safeTransferFrom",
      "outputs": [],
      "stateMutability": "nonpayable",
      "type": "function"
    },
    {
      "inputs": [
        {
          "internalType": "address",
          "name": "from",
          "type": "address"
        },
        {
          "internalType": "address",
          "name": "to",
          "type": "address"
        },
        {
          "internalType": "uint256",
          "name": "tokenId",
          "type": "uint256"
        },
        {
          "internalType": "bytes",
          "name": "_data",
          "type": "bytes"
        }
      ],
      "name": "safeTransferFrom",
      "outputs": [],
      "stateMutability": "nonpayable",
      "type": "function"
    },
    {
      "inputs": [
        {
          "internalType": "address",
          "name": "operator",
          "type": "address"
        },
        {
          "internalType": "bool",
          "name": "approved",
          "type": "bool"
        }
      ],
      "name": "setApprovalForAll",
      "outputs": [],
      "stateMutability": "nonpayable",
      "type": "function"
    },
    {
      "inputs": [
        {
          "internalType": "bytes4",
          "name": "interfaceId",
          "type": "bytes4"
        }
      ],
      "name": "supportsInterface",
      "outputs": [
        {
          "internalType": "bool",
          "name": "",
          "type": "bool"
        }
      ],
      "stateMutability": "view",
      "type": "function"
    },
    {
      "inputs": [],
      "name": "symbol",
      "outputs": [
        {
          "internalType": "string",
          "name": "",
          "type": "string"
        }
      ],
      "stateMutability": "view",
      "type": "function"
    },
    {
      "inputs": [
        {
          "internalType": "uint256",
          "name": "tokenId",
          "type": "uint256"
        }
      ],
      "name": "tokenURI",
      "outputs": [
        {
          "internalType": "string",
          "name": "",
          "type": "string"
        }
      ],
      "stateMutability": "view",
      "type": "function"
    },
    {
      "inputs": [
        {
          "internalType": "address",
          "name": "from",
          "type": "address"
        },
        {
          "internalType": "address",
          "name": "to",
          "type": "address"
        },
        {
          "internalType": "uint256",
          "name": "tokenId",
          "type": "uint256"
        }
      ],
      "name": "transferFrom",
      "outputs": [],
      "stateMutability": "nonpayable",
      "type": "function"
    }
  ],
  "bytecode": "0x60806040523480156200001157600080fd5b506040518060400160405280600881526020017f47616d654974656d0000000000000000000000000000000000000000000000008152506040518060400160405280600381526020017f49544d0000000000000000000000000000000000000000000000000000000000815250816000908051906020019062000096929190620000b8565b508060019080519060200190620000af929190620000b8565b505050620001cd565b828054620000c69062000168565b90600052602060002090601f016020900481019282620000ea576000855562000136565b82601f106200010557805160ff191683800117855562000136565b8280016001018555821562000136579182015b828111156200013557825182559160200191906001019062000118565b5b50905062000145919062000149565b5090565b5b80821115620001645760008160009055506001016200014a565b5090565b600060028204905060018216806200018157607f821691505b602082108114156200019857620001976200019e565b5b50919050565b7f4e487b7100000000000000000000000000000000000000000000000000000000600052602260045260246000fd5b61244d80620001dd6000396000f3fe608060405234801561001057600080fd5b50600436106100ea5760003560e01c806370a082311161008c578063a22cb46511610066578063a22cb4651461026f578063b88d4fde1461028b578063c87b56dd146102a7578063e985e9c5146102d7576100ea565b806370a08231146101f157806395d89b4114610221578063a15ab08d1461023f576100ea565b8063095ea7b3116100c8578063095ea7b31461016d57806323b872dd1461018957806342842e0e146101a55780636352211e146101c1576100ea565b806301ffc9a7146100ef57806306fdde031461011f578063081812fc1461013d575b600080fd5b610109600480360381019061010491906118ad565b610307565b6040516101169190611eea565b60405180910390f35b6101276103e9565b6040516101349190611f05565b60405180910390f35b610157600480360381019061015291906118ff565b61047b565b6040516101649190611e83565b60405180910390f35b61018760048036038101906101829190611871565b610500565b005b6101a3600480360381019061019e9190611717565b610618565b005b6101bf60048036038101906101ba9190611717565b610678565b005b6101db60048036038101906101d691906118ff565b610698565b6040516101e89190611e83565b60405180910390f35b61020b600480360381019061020691906116b2565b61074a565b60405161021891906120c7565b60405180910390f35b610229610802565b6040516102369190611f05565b60405180910390f35b6102596004803603810190610254919061181d565b610894565b60405161026691906120c7565b60405180910390f35b610289600480360381019061028491906117e1565b6108ea565b005b6102a560048036038101906102a09190611766565b610900565b005b6102c160048036038101906102bc91906118ff565b610962565b6040516102ce9190611f05565b60405180910390f35b6102f160048036038101906102ec91906116db565b610a07565b6040516102fe9190611eea565b60405180910390f35b60007f80ac58cd000000000000000000000000000000000000000000000000000000007bffffffffffffffffffffffffffffffffffffffffffffffffffffffff1916827bffffffffffffffffffffffffffffffffffffffffffffffffffffffff191614806103d257507f5b5e139f000000000000000000000000000000000000000000000000000000007bffffffffffffffffffffffffffffffffffffffffffffffffffffffff1916827bffffffffffffffffffffffffffffffffffffffffffffffffffffffff1916145b806103e257506103e182610a9b565b5b9050919050565b6060600080546103f8906122eb565b80601f0160208091040260200160405190810160405280929190818152602001828054610424906122eb565b80156104715780601f1061044657610100808354040283529160200191610471565b820191906000526020600020905b81548152906001019060200180831161045457829003601f168201915b5050505050905090565b600061048682610b05565b6104c5576040517f08c379a00000000000000000000000000000000000000000000000000000000081526004016104bc90612047565b60405180910390fd5b6004600083815260200190815260200160002060009054906101000a900473ffffffffffffffffffffffffffffffffffffffff169050919050565b600061050b82610698565b90508073ffffffffffffffffffffffffffffffffffffffff168373ffffffffffffffffffffffffffffffffffffffff16141561057c576040517f08c379a000000000000000000000000000000000000000000000000000000000815260040161057390612087565b60405180910390fd5b8073ffffffffffffffffffffffffffffffffffffffff1661059b610b71565b73ffffffffffffffffffffffffffffffffffffffff1614806105ca57506105c9816105c4610b71565b610a07565b5b610609576040517f08c379a000000000000000000000000000000000000000000000000000000000815260040161060090611fc7565b60405180910390fd5b6106138383610b79565b505050565b610629610623610b71565b82610c32565b610668576040517f08c379a000000000000000000000000000000000000000000000000000000000815260040161065f906120a7565b60405180910390fd5b610673838383610d10565b505050565b61069383838360405180602001604052806000815250610900565b505050565b6000806002600084815260200190815260200160002060009054906101000a900473ffffffffffffffffffffffffffffffffffffffff169050600073ffffffffffffffffffffffffffffffffffffffff168173ffffffffffffffffffffffffffffffffffffffff161415610741576040517f08c379a000000000000000000000000000000000000000000000000000000000815260040161073890612007565b60405180910390fd5b80915050919050565b60008073ffffffffffffffffffffffffffffffffffffffff168273ffffffffffffffffffffffffffffffffffffffff1614156107bb576040517f08c379a00000000000000000000000000000000000000000000000000000000081526004016107b290611fe7565b60405180910390fd5b600360008373ffffffffffffffffffffffffffffffffffffffff1673ffffffffffffffffffffffffffffffffffffffff168152602001908152602001600020549050919050565b606060018054610811906122eb565b80601f016020809104026020016040519081016040528092919081815260200182805461083d906122eb565b801561088a5780601f1061085f5761010080835404028352916020019161088a565b820191906000526020600020905b81548152906001019060200180831161086d57829003601f168201915b5050505050905090565b60006108a06006610f6c565b60006108ac6006610f82565b90506108b88482610f90565b826007600083815260200190815260200160002090805190602001906108df9291906114d6565b508091505092915050565b6108fc6108f5610b71565b838361115e565b5050565b61091161090b610b71565b83610c32565b610950576040517f08c379a0000000000000000000000000000000000000000000000000000000008152600401610947906120a7565b60405180910390fd5b61095c848484846112cb565b50505050565b6060600760008381526020019081526020016000208054610982906122eb565b80601f01602080910402602001604051908101604052809291908181526020018280546109ae906122eb565b80156109fb5780601f106109d0576101008083540402835291602001916109fb565b820191906000526020600020905b8154815290600101906020018083116109de57829003601f168201915b50505050509050919050565b6000600560008473ffffffffffffffffffffffffffffffffffffffff1673ffffffffffffffffffffffffffffffffffffffff16815260200190815260200160002060008373ffffffffffffffffffffffffffffffffffffffff1673ffffffffffffffffffffffffffffffffffffffff16815260200190815260200160002060009054906101000a900460ff16905092915050565b60007f01ffc9a7000000000000000000000000000000000000000000000000000000007bffffffffffffffffffffffffffffffffffffffffffffffffffffffff1916827bffffffffffffffffffffffffffffffffffffffffffffffffffffffff1916149050919050565b60008073ffffffffffffffffffffffffffffffffffffffff166002600084815260200190815260200160002060009054906101000a900473ffffffffffffffffffffffffffffffffffffffff1673ffffffffffffffffffffffffffffffffffffffff1614159050919050565b600033905090565b816004600083815260200190815260200160002060006101000a81548173ffffffffffffffffffffffffffffffffffffffff021916908373ffffffffffffffffffffffffffffffffffffffff160217905550808273ffffffffffffffffffffffffffffffffffffffff16610bec83610698565b73ffffffffffffffffffffffffffffffffffffffff167f8c5be1e5ebec7d5bd14f71427d1e84f3dd0314c0f7b2291e5b200ac8c7c3b92560405160405180910390a45050565b6000610c3d82610b05565b610c7c576040517f08c379a0000000000000000000000000000000000000000000000000000000008152600401610c7390611fa7565b60405180910390fd5b6000610c8783610698565b90508073ffffffffffffffffffffffffffffffffffffffff168473ffffffffffffffffffffffffffffffffffffffff161480610cf657508373ffffffffffffffffffffffffffffffffffffffff16610cde8461047b565b73ffffffffffffffffffffffffffffffffffffffff16145b80610d075750610d068185610a07565b5b91505092915050565b8273ffffffffffffffffffffffffffffffffffffffff16610d3082610698565b73ffffffffffffffffffffffffffffffffffffffff1614610d86576040517f08c379a0000000000000000000000000000000000000000000000000000000008152600401610d7d90612067565b60405180910390fd5b600073ffffffffffffffffffffffffffffffffffffffff168273ffffffffffffffffffffffffffffffffffffffff161415610df6576040517f08c379a0000000000000000000000000000000000000000000000000000000008152600401610ded90611f67565b60405180910390fd5b610e01838383611327565b610e0c600082610b79565b6001600360008573ffffffffffffffffffffffffffffffffffffffff1673ffffffffffffffffffffffffffffffffffffffff1681526020019081526020016000206000828254610e5c9190612201565b925050819055506001600360008473ffffffffffffffffffffffffffffffffffffffff1673ffffffffffffffffffffffffffffffffffffffff1681526020019081526020016000206000828254610eb391906121ab565b92505081905550816002600083815260200190815260200160002060006101000a81548173ffffffffffffffffffffffffffffffffffffffff021916908373ffffffffffffffffffffffffffffffffffffffff160217905550808273ffffffffffffffffffffffffffffffffffffffff168473ffffffffffffffffffffffffffffffffffffffff167fddf252ad1be2c89b69c2b068fc378daa952ba7f163c4a11628f55a4df523b3ef60405160405180910390a4505050565b6001816000016000828254019250508190555050565b600081600001549050919050565b600073ffffffffffffffffffffffffffffffffffffffff168273ffffffffffffffffffffffffffffffffffffffff161415611000576040517f08c379a0000000000000000000000000000000000000000000000000000000008152600401610ff790612027565b60405180910390fd5b61100981610b05565b15611049576040517f08c379a000000000000000000000000000000000000000000000000000000000815260040161104090611f47565b60405180910390fd5b61105560008383611327565b6001600360008473ffffffffffffffffffffffffffffffffffffffff1673ffffffffffffffffffffffffffffffffffffffff16815260200190815260200160002060008282546110a591906121ab565b92505081905550816002600083815260200190815260200160002060006101000a81548173ffffffffffffffffffffffffffffffffffffffff021916908373ffffffffffffffffffffffffffffffffffffffff160217905550808273ffffffffffffffffffffffffffffffffffffffff16600073ffffffffffffffffffffffffffffffffffffffff167fddf252ad1be2c89b69c2b068fc378daa952ba7f163c4a11628f55a4df523b3ef60405160405180910390a45050565b8173ffffffffffffffffffffffffffffffffffffffff168373ffffffffffffffffffffffffffffffffffffffff1614156111cd576040517f08c379a00000000000000000000000000000000000000000000000000000000081526004016111c490611f87565b60405180910390fd5b80600560008573ffffffffffffffffffffffffffffffffffffffff1673ffffffffffffffffffffffffffffffffffffffff16815260200190815260200160002060008473ffffffffffffffffffffffffffffffffffffffff1673ffffffffffffffffffffffffffffffffffffffff16815260200190815260200160002060006101000a81548160ff0219169083151502179055508173ffffffffffffffffffffffffffffffffffffffff168373ffffffffffffffffffffffffffffffffffffffff167f17307eab39ab6107e8899845ad3d59bd9653f200f220920489ca2b5937696c31836040516112be9190611eea565b60405180910390a3505050565b6112d6848484610d10565b6112e28484848461132c565b611321576040517f08c379a000000000000000000000000000000000000000000000000000000000815260040161131890611f27565b60405180910390fd5b50505050565b505050565b600061134d8473ffffffffffffffffffffffffffffffffffffffff166114c3565b156114b6578373ffffffffffffffffffffffffffffffffffffffff1663150b7a02611376610b71565b8786866040518563ffffffff1660e01b81526004016113989493929190611e9e565b602060405180830381600087803b1580156113b257600080fd5b505af19250505080156113e357506040513d601f19601f820116820180604052508101906113e091906118d6565b60015b611466573d8060008114611413576040519150601f19603f3d011682016040523d82523d6000602084013e611418565b606091505b5060008151141561145e576040517f08c379a000000000000000000000000000000000000000000000000000000000815260040161145590611f27565b60405180910390fd5b805181602001fd5b63150b7a0260e01b7bffffffffffffffffffffffffffffffffffffffffffffffffffffffff1916817bffffffffffffffffffffffffffffffffffffffffffffffffffffffff1916149150506114bb565b600190505b949350505050565b600080823b905060008111915050919050565b8280546114e2906122eb565b90600052602060002090601f016020900481019282611504576000855561154b565b82601f1061151d57805160ff191683800117855561154b565b8280016001018555821561154b579182015b8281111561154a57825182559160200191906001019061152f565b5b509050611558919061155c565b5090565b5b8082111561157557600081600090555060010161155d565b5090565b600061158c61158784612113565b6120e2565b9050828152602081018484840111156115a457600080fd5b6115af8482856122a9565b509392505050565b60006115ca6115c584612143565b6120e2565b9050828152602081018484840111156115e257600080fd5b6115ed8482856122a9565b509392505050565b600081359050611604816123bb565b92915050565b600081359050611619816123d2565b92915050565b60008135905061162e816123e9565b92915050565b600081519050611643816123e9565b92915050565b600082601f83011261165a57600080fd5b813561166a848260208601611579565b91505092915050565b600082601f83011261168457600080fd5b81356116948482602086016115b7565b91505092915050565b6000813590506116ac81612400565b92915050565b6000602082840312156116c457600080fd5b60006116d2848285016115f5565b91505092915050565b600080604083850312156116ee57600080fd5b60006116fc858286016115f5565b925050602061170d858286016115f5565b9150509250929050565b60008060006060848603121561172c57600080fd5b600061173a868287016115f5565b935050602061174b868287016115f5565b925050604061175c8682870161169d565b9150509250925092565b6000806000806080858703121561177c57600080fd5b600061178a878288016115f5565b945050602061179b878288016115f5565b93505060406117ac8782880161169d565b925050606085013567ffffffffffffffff8111156117c957600080fd5b6117d587828801611649565b91505092959194509250565b600080604083850312156117f457600080fd5b6000611802858286016115f5565b92505060206118138582860161160a565b9150509250929050565b6000806040838503121561183057600080fd5b600061183e858286016115f5565b925050602083013567ffffffffffffffff81111561185b57600080fd5b61186785828601611673565b9150509250929050565b6000806040838503121561188457600080fd5b6000611892858286016115f5565b92505060206118a38582860161169d565b9150509250929050565b6000602082840312156118bf57600080fd5b60006118cd8482850161161f565b91505092915050565b6000602082840312156118e857600080fd5b60006118f684828501611634565b91505092915050565b60006020828403121561191157600080fd5b600061191f8482850161169d565b91505092915050565b61193181612235565b82525050565b61194081612247565b82525050565b600061195182612173565b61195b8185612189565b935061196b8185602086016122b8565b611974816123aa565b840191505092915050565b600061198a8261217e565b611994818561219a565b93506119a48185602086016122b8565b6119ad816123aa565b840191505092915050565b60006119c560328361219a565b91507f4552433732313a207472616e7366657220746f206e6f6e20455243373231526560008301527f63656976657220696d706c656d656e74657200000000000000000000000000006020830152604082019050919050565b6000611a2b601c8361219a565b91507f4552433732313a20746f6b656e20616c7265616479206d696e746564000000006000830152602082019050919050565b6000611a6b60248361219a565b91507f4552433732313a207472616e7366657220746f20746865207a65726f2061646460008301527f72657373000000000000000000000000000000000000000000000000000000006020830152604082019050919050565b6000611ad160198361219a565b91507f4552433732313a20617070726f766520746f2063616c6c6572000000000000006000830152602082019050919050565b6000611b11602c8361219a565b91507f4552433732313a206f70657261746f7220717565727920666f72206e6f6e657860008301527f697374656e7420746f6b656e00000000000000000000000000000000000000006020830152604082019050919050565b6000611b7760388361219a565b91507f4552433732313a20617070726f76652063616c6c6572206973206e6f74206f7760008301527f6e6572206e6f7220617070726f76656420666f7220616c6c00000000000000006020830152604082019050919050565b6000611bdd602a8361219a565b91507f4552433732313a2062616c616e636520717565727920666f7220746865207a6560008301527f726f2061646472657373000000000000000000000000000000000000000000006020830152604082019050919050565b6000611c4360298361219a565b91507f4552433732313a206f776e657220717565727920666f72206e6f6e657869737460008301527f656e7420746f6b656e00000000000000000000000000000000000000000000006020830152604082019050919050565b6000611ca960208361219a565b91507f4552433732313a206d696e7420746f20746865207a65726f20616464726573736000830152602082019050919050565b6000611ce9602c8361219a565b91507f4552433732313a20617070726f76656420717565727920666f72206e6f6e657860008301527f697374656e7420746f6b656e00000000000000000000000000000000000000006020830152604082019050919050565b6000611d4f60298361219a565b91507f4552433732313a207472616e73666572206f6620746f6b656e2074686174206960008301527f73206e6f74206f776e00000000000000000000000000000000000000000000006020830152604082019050919050565b6000611db560218361219a565b91507f4552433732313a20617070726f76616c20746f2063757272656e74206f776e6560008301527f72000000000000000000000000000000000000000000000000000000000000006020830152604082019050919050565b6000611e1b60318361219a565b91507f4552433732313a207472616e736665722063616c6c6572206973206e6f74206f60008301527f776e6572206e6f7220617070726f7665640000000000000000000000000000006020830152604082019050919050565b611e7d8161229f565b82525050565b6000602082019050611e986000830184611928565b92915050565b6000608082019050611eb36000830187611928565b611ec06020830186611928565b611ecd6040830185611e74565b8181036060830152611edf8184611946565b905095945050505050565b6000602082019050611eff6000830184611937565b92915050565b60006020820190508181036000830152611f1f818461197f565b905092915050565b60006020820190508181036000830152611f40816119b8565b9050919050565b60006020820190508181036000830152611f6081611a1e565b9050919050565b60006020820190508181036000830152611f8081611a5e565b9050919050565b60006020820190508181036000830152611fa081611ac4565b9050919050565b60006020820190508181036000830152611fc081611b04565b9050919050565b60006020820190508181036000830152611fe081611b6a565b9050919050565b6000602082019050818103600083015261200081611bd0565b9050919050565b6000602082019050818103600083015261202081611c36565b9050919050565b6000602082019050818103600083015261204081611c9c565b9050919050565b6000602082019050818103600083015261206081611cdc565b9050919050565b6000602082019050818103600083015261208081611d42565b9050919050565b600060208201905081810360008301526120a081611da8565b9050919050565b600060208201905081810360008301526120c081611e0e565b9050919050565b60006020820190506120dc6000830184611e74565b92915050565b6000604051905081810181811067ffffffffffffffff821117156121095761210861237b565b5b8060405250919050565b600067ffffffffffffffff82111561212e5761212d61237b565b5b601f19601f8301169050602081019050919050565b600067ffffffffffffffff82111561215e5761215d61237b565b5b601f19601f8301169050602081019050919050565b600081519050919050565b600081519050919050565b600082825260208201905092915050565b600082825260208201905092915050565b60006121b68261229f565b91506121c18361229f565b9250827fffffffffffffffffffffffffffffffffffffffffffffffffffffffffffffffff038211156121f6576121f561231d565b5b828201905092915050565b600061220c8261229f565b91506122178361229f565b92508282101561222a5761222961231d565b5b828203905092915050565b60006122408261227f565b9050919050565b60008115159050919050565b60007fffffffff0000000000000000000000000000000000000000000000000000000082169050919050565b600073ffffffffffffffffffffffffffffffffffffffff82169050919050565b6000819050919050565b82818337600083830152505050565b60005b838110156122d65780820151818401526020810190506122bb565b838111156122e5576000848401525b50505050565b6000600282049050600182168061230357607f821691505b602082108114156123175761231661234c565b5b50919050565b7f4e487b7100000000000000000000000000000000000000000000000000000000600052601160045260246000fd5b7f4e487b7100000000000000000000000000000000000000000000000000000000600052602260045260246000fd5b7f4e487b7100000000000000000000000000000000000000000000000000000000600052604160045260246000fd5b6000601f19601f8301169050919050565b6123c481612235565b81146123cf57600080fd5b50565b6123db81612247565b81146123e657600080fd5b50565b6123f281612253565b81146123fd57600080fd5b50565b6124098161229f565b811461241457600080fd5b5056fea2646970667358221220136a300eb13b2cfef2f5ee9aa89186f5a82b0b56eea9c6fa07f7ec85a5abe4ca64736f6c63430008000033",
  "linkReferences": {},
  "deployedLinkReferences": {}
}